:100000000C9434000C94C7000C94C7000C94C700E7
:100010000C94C7000C94C7000C94C7000C94C70044
:100020000C94C7000C94C7000C94C7000C94C70034
:100030000C94C7000C94C7000C94C7000C94C70024
:100040000C94C7000C94C7000C94C7000C94C70014
:100050000C94C7000C94C7000C94C7000C94C70004
:100060000C94C7000C94C70011241FBECFEFD8E03A
:10007000DEBFCDBF0E9440000C948800F894FFCFF3
:100080000E9493000E94BB000E94A3000E94A70050
:100090000E9497000E94AF000E94B3000E94B70028
:1000A00086E090E00E9479000E949F000E94BF00BD
:1000B0000E94A7000E94AB000E949B000E94B30018
:1000C0000E94B70086E090E00E9479000E949F00A5
:1000D0000E94A3000E94C3000E9497000E949B0000
:1000E0000E94B3000E94B70086E090E00E94790071
:0200F000C9CF76
:1000F20020E030E008C0EFE9FFE03197F1F700C0FF
:0E01020000002F5F3F4F28173907A8F308951C
:10011000EC010E94CC000E94CB00CE010E94CD00D9
:06012000CE010E94C9009F
:080126008FEF8AB984B9089536
:08012E008BB184608BB90895C8
:080136008BB188608BB90895BC
:08013E0085B1886085B90895C0
:0801460085B1806185B90895BF
:08014E0085B1806285B90895B6
:080156008BB18B7F8BB908957A
:08015E008BB1877F8BB9089576
:080166008BB18F7E8BB9089567
:08016E008BB18F7D8BB9089560
:0801760085B1877F85B908956A
:08017E0085B18F7E85B908955B
:0801860085B18F7D85B9089554
:04018E000C940000CD
:040192000E943E0089
:020196000895CA
:020198000895C8
:02019A000895C6
:00000001FF
