:100000000C9434000C94E2000C94E2000C94E20096
:100010000C94E2000C94E2000C94E2000C94E200D8
:100020000C94E2000C94E2000C94E2000C94E200C8
:100030000C94E2000C94E2000C94E2000C94E200B8
:100040000C94E2000C94E2000C94E2000C94E200A8
:100050000C94E2000C94E2000C94E2000C94E20098
:100060000C94E2000C94E20011241FBECFEFD8E004
:10007000DEBFCDBF0E9479000C94B900F894FFCF89
:100080006623D9F0813019F40E94C40008958230AB
:1000900021F481E00E94CE000895833021F481E0B4
:1000A0000E94D800089581E00E94C40081E00E946F
:1000B000CE0081E00E94D8000895813021F480E0D4
:1000C0000E94C4000895823021F480E00E94CE0096
:1000D0000895833021F480E00E94D800089580E0E4
:1000E0000E94C40080E00E94CE0080E00E94D80000
:0200F000089571
:1000F2000E94A9000E949700880F892F881F990BE0
:100102009195EC01DD2761E080FF60E083E00E94D1
:10011200400061E0C1FF60E082E00E94400061E0D7
:0C012200C2FF60E081E00E944000E4CFDA
:10012E0080E480937C0087EC80937A0080917A0043
:10013E0084FFFCCF80E180937A00809178009091CB
:04014E007900089597
:1001520082E084B988E087B98AB18F778AB98AB197
:100162008F7E8AB98FE68AB98BB18F608BB9089579
:10017200EC010E94E7000E94E600CE010E94E80026
:06018200CE010E94E40022
:10018800882321F085B1826085B9089585B18D7F76
:0401980085B9089588
:10019C00882321F08BB180648BB908958BB18F7B50
:0401AC008BB908956E
:1001B000882321F08BB180628BB908958BB18F7D3C
:0401C0008BB908955A
:0401C4000C94000097
:0401C8000E943E0053
:0201CC00089594
:0201CE00089592
:0201D000089590
:00000001FF
